:020000040800F2
:10000000B0100020ED01000861770008FD670008CE
:10001000596E0008E7100008C592000800000000B3
:1000200000000000000000000000000051810008F6
:100030007D1B000800000000557D0008D9820008E3
:10004000070200080702000807020008070200086C
:10005000070200080702000807020008070200085C
:10006000070200080702000807020008211700081D
:1000700031170008070200080702000807020008FD
:100080000702000800000000510C000807020008E9
:1000900007020008B11F0008070200080702000855
:1000A000070200080702000807020008070200080C
:1000B00007020008070200080702000807020008FC
:1000C00007020008070200080702000807020008EC
:1000D000070200086D9200080702000807020008E6
:1000E00007020008070200080702000807020008CC
:1000F00007020008070200080702000800000000CD
:1001000000000000070200080000000007020008CD
:1001100007020008000000000702000861830008D1
:10012000070200080702000807020008070200088B
:10013000070200080000000000000000070200089D
:10014000070200080702000800000000000000008D
:10015000000000000000000000000000000000009F
:10016000000000000000000000000000070200087E
:10017000070200080000000000000000000000006E
:10018000000000000702000800000000000000005E
:10019000000000000000000000000000000000005F
:1001A000000000000000000007020008070200082D
:1001B000070200080702000807020008000000000C
:1001C000000000000702000800000000000000001E
:1001D0000702000807020008DFF80CD000F0E2F97F
:1001E0000048004795940008B0100020064880475A
:1001F00006480047FEE7FEE7FEE7FEE7FEE7FEE70C
:10020000FEE7FEE7FEE7FEE74D830008D9010008A0
:100210002DE9F05F0546002092469B46884606463B
:10022000814640241BE0284641464746224600F0CE
:1002300088F853465A46C01A914110D311461846C1
:10024000224600F06FF82D1A67EB01084F46224650
:100250000120002100F066F817EB00094E41201E36
:10026000A4F10104DFDC484631462A464346BDE896
:10027000F09FD2B201E000F8012B491EFBD270477B
:100280000022F6E710B513460A4604461946FFF762
:10029000F0FF204610BD00F0004230F000400AD0D0
:1002A000C10D01F56071C0F3160042EA0151C208A8
:1002B00040071143704700200146704730B5041EC7
:1002C00071F1000404DB4FF00044404264EB010193
:1002D000141E73F1000405DB1C464FF0004352422C
:1002E00063EB0403994208BF904230BD01F0004324
:1002F00030B421F0004150EA010206D00A0DA2F507
:100300006072C1F31301002A02DC30BC0020704788
:10031000440F44EAC104C100E01830BC00EBC250F5
:1003200000F01FB8202A04DB203A00FA02F1002076
:1003300070479140C2F1200320FA03F31943904023
:100340007047202A04DB203A21FA02F0002170478E
:1003500021FA02F3D040C2F120029140084319462D
:1003600070470029A8BF7047401C490008BF20F013
:100370000100704710B4B0FA80FC00FA0CF050EAAB
:10038000010404BF10BC704749B1CCF1200421FA2C
:1003900004F411FA0CF118BF012121430843A3EB27
:1003A0000C01CB1D4FEA00614FEA102042BF002034
:1003B00010BC704700EBC35010440029A4BF10BC10
:1003C0007047401C490008BF20F0010010BC704776
:1003D0002DE9FE4F804681EA0300C00F0C460090D5
:1003E00021F0004123F00045B8EB0200A94105D2FD
:1003F0004046214690461C460B46024623F00040EC
:10040000104347D0270DC7F30A00C3F30A510290E7
:10041000401A019040286BDAC3F3130040F4801BAC
:100420000098924620B10023D2EB030A63EB0B0B3A
:1004300001985946C0F140025046FFF773FF064647
:100440000D4650465946019A00F0BEF810EB0800E0
:100450006141002487EA115284EAE7731A4340D0CD
:10046000009A62B3019A012A4FEA075215DC001B79
:1004700061EB02014FF0004202EA0752CDE900426F
:10048000001C41F5801132462B4600F0BEF803B047
:10049000BDE8F08F40462146F9E7001B61EB020101
:1004A000001C41F5801300185B412018A2F50017CD
:1004B00047EB030140EAD570B6196D4111E06D08B4
:1004C0004FEA360645EAC0754FEA0752001B61EB5A
:1004D0000201001C41F5801149084FEA3000001963
:1004E000514132462B4603B0BDE8F04F00F07EB8D4
:1004F0000098012240000023D0EB020263EBE0737E
:10050000009821464FEAE074B8EB000061EB04016B
:10051000E9E783F000435BE781F0004158E72DE90C
:10052000FE4FC3F30A5701F000450024C1F30A56F9
:10053000C3F31303C1F3130143F4801312EB020A54
:10054000A64641F48011009543EB030CA7F1010B83
:1005500016E0B0EB0A0061EB0C01071E71F1000719
:1005600007DA4FF00008D0EB080085F0004568EB93
:100570000101171A73EB0107EBD3761E00184941EE
:100580005E45F6DA50EA010209D0CDE900E5002225
:100590001346029600F039F803B0BDE8F08F20460C
:1005A0000099F9E7064C074D06E0E06840F00103CA
:1005B00094E8070098471034AC42F6D3FFF710FEDA
:1005C0007895000898950008202A06DBCB17203A7A
:1005D00041FA02F043EAE07306E041FA02F3D04048
:1005E000C2F12002914008431946704710B5141E0D
:1005F00073F1000408DA401C41F1000192185B41DC
:100600001A4301D120F0010010BD2DE9F04D9246B2
:100610009B4611B1B1FA81F202E0B0FA80F22032C9
:100620009046FFF77FFE04460F4640EA0A0041EA83
:100630000B0153465A46084313D0114653EA0100B2
:1006400019D0C8F140025046FFF77BFE05460E4622
:10065000504659464246FFF765FE084305D0012043
:1006600004E020463946BDE8F08D0020054346EA07
:10067000E0762C4337430A986305E40AA0EB0800B0
:100680000022FD0A44EA47540A3002D50020014600
:10069000E9E7010510196941DDE9084500196941DB
:1006A000BDE8F04DA2E72DE9F04D81EA030404F026
:1006B000004B21F0004514464FF0000A23F00041A2
:1006C00050EA050220D054EA01021DD0C5F30A57B2
:1006D0000246C5F31303C1F31300C1F30A5640F4F5
:1006E000801543F48013A7EB0608101BD64608F2CA
:1006F000FD3873EB050002D308F1010801E0921800
:100700005B41B8F1000F03DA00200146BDE8F08D2F
:1007100000204FF48011064684460EE0171B73EB51
:10072000050705D3121B63EB050306434CEA010CD6
:1007300049084FEA300092185B4150EA0107EDD1B9
:1007400052EA030012D082EA040083EA050108435A
:1007500005D0101BAB4106D20122002306E0002287
:100760004FF0004302E06FF0010253101AEB060055
:100770004CEB085110EB0A0041EB0B01BDE8F04DCA
:10078000FFF734BF2DE9F04F81B02DED048B84B01D
:100790000588D0F804C0D0F808806F1E0020B0EBA8
:1007A000D30F0CEB870B0297CDE9005300F0E681E5
:1007B00025F0070008EB8000039045F007009FED4F
:1007C000BB0ADF084FEAD50905F007060CEB800AE3
:1007D000604600BF0B68B9F1000FCBF800304B68E2
:1007E000CBF804308B68CBF80830CB68CBF80C30F2
:1007F0000B69CBF810304B69CBF814308B69CBF810
:100800001830CB69CBF81C3090ED006A90ED015A9E
:1008100090ED027A90ED031A90ED042A90ED054ACE
:1008200090ED063A00F044814FF0000EF0EE400AE1
:10083000F0EE401AF0EE402AF0EE403AF0EE404A78
:10084000F0EE405AF0EE406A4B46F0EE407A00BFC0
:1008500008EB0E0494ED008A00EB0E0523EE089AD7
:1008600026EE086A71EE891A94ED019A37EE866ACF
:1008700065EE087A76EEA76A67EE087A25EE095AE1
:1008800075EEA75A61EE087A36EE055A27EE096A28
:1008900074EEA74A62EE087A76EE866A21EE096A5D
:1008A00073EEA73A64EE087A75EE865A22EE096A6C
:1008B00072EEA77AD5ED072A74EE864A24EE096A0D
:1008C00073EE863A23EE096A28EE228A77EE867A5C
:1008D00095ED086A70EE880A22EE898A71EE881A10
:1008E00029EE068A94ED029A70EE880A27EE097ABC
:1008F00035EE077A21EE095A76EE856A22EE095A1C
:1009000075EE855A24EE095A74EE854A23EE095A8B
:1009100073EE853A22EE895A77EE857A95ED095A7B
:1009200026EE098A71EE881A29EE058A94ED039A5B
:1009300070EE880A21EE091A37EE011A22EE097AC2
:1009400076EE876A24EE097A75EE875A23EE097AE5
:1009500074EE874A22EE897A73EE873A26EE097A98
:1009600077EE877A95ED0A7A25EE098A71EE881A74
:1009700029EE078A94ED049A70EE880A22EE092A7D
:1009800031EE022A24EE091A76EE816A23EE091A64
:1009900075EE815A22EE891A74EE814A26EE091A02
:1009A00073EE813A25EE091A77EE817A95ED0B1AEE
:1009B00027EE098A71EE881A29EE018A94ED059ACC
:1009C00070EE880A24EE094A32EE044A23EE092A20
:1009D00076EE826A22EE892A75EE825A26EE092A7E
:1009E00074EE824A25EE092A73EE823A27EE092A2E
:1009F00077EE827A95ED0C2A21EE098A71EE881A3B
:100A000029EE028A94ED069A70EE880A23EE093ADE
:100A100034EE033A22EE894A76EE846A26EE094ADB
:100A200075EE845A25EE094A74EE844A27EE094A87
:100A300073EE843A21EE094A37EE848A95ED0D4A29
:100A400062EE097A71EEA71A69EE047A94ED079ABC
:100A500070EEA70A62EE892A73EE227A26EE093A30
:100A600076EE836A25EE093A75EE835A27EE093A47
:100A700074EE834A21EE093A73EE833A22EE093A84
:100A800078EE032A95ED0E3A24EE098A71EE881A63
:100A900029EE038A70EE880AB9F101090EF1200EE1
:100AA0007FF4D6AE039D5446994614E00000000042
:100AB00000F11C044546F0EE407AF0EE406AF0EE9C
:100AC000405AF0EE404AF0EE403AF0EE402AF0EEA6
:100AD000401AF0EE400A20310BF1200BA6B333464A
:100AE00095ED008A043526EE086A77EE867AB0EE38
:100AF000456A25EE085A76EE856AB0EE475A27EE2B
:100B0000087A75EE875AB0EE417A21EE081A74EE33
:100B1000814AB0EE421A22EE082A73EE823AB0EE13
:100B2000442A24EE084A72EE842AB0EE434A94ED39
:100B3000003A24EE089A28EE038A71EE891A70EEC4
:100B4000880A0434013BCBD102F120052030C2EDEC
:100B5000007AC2ED016AC2ED025AC2ED034AC2ED4B
:100B6000043AC2ED052AC2ED061AC2ED070A013F9A
:100B70000AF1200A2A467FF42DAE01E060461546B0
:100B8000019A12F0070225D09FED280ADDF800E057
:100B900051F8043BBEF1000F4BF8043BB0EE401A95
:100BA00013D000237746B0EE401A00BF08EB0304D1
:100BB000C61896ED002A94ED003A013F22EE032A72
:100BC00031EE021A03F10403F0D1A5EC011A04304E
:100BD000013ADDD1029F0021B1EB970F16D0B90881
:100BE00002680CF11003CCF8002042680139CCF8FF
:100BF00004208268CCF8082000F11002C068CCF80C
:100C00000C009C461046EBD110469C4617F00301A1
:100C100006D000BF50F8042B01394CF8042BF9D151
:100C200004B0BDEC048B01B0BDE8F08F0000000003
:100C3000B0B505460498298008446FF0030101EB24
:100C4000800118461C46AA60FFF71AFB6C60B0BD15
:100C500010B5024801F00EFF10BD00007402002024
:100C600070B50446206805F0FBFD0646206805F0D7
:100C7000FCFD98B396BB2068806800F00D00012849
:100C80000AD1206881681A4A1140891C816000BF1E
:100C900003202168086009E0E06D40F01000E06585
:100CA000206E40F001002066012070BD03F04EF977
:100CB000054614E003F04AF9401B02280FD92068CA
:100CC000806800F0010050B1E06D40F01000E06578
:100CD000206E40F0010020660120E6E705E0206874
:100CE000806800F001000028E4D10020DDE700006A
:100CF000C0FFFF7F38B5044600200090206805F053
:100D0000B4FD00284FD1206880682849084048B1C8
:100D1000E06D40F01000E065206E40F001002066BC
:100D2000012038BD206805F06BFD00BF20488068B9
:100D300000F0E07000F4000080B11E4800681E4919
:100D4000B0FBF1F0401C00EB40008000009002E09E
:100D50000098401E009000980028F9D103F0F6F8A2
:100D600005461AE0206805F080FD10B9206805F0FE
:100D700047FD03F0EBF8401B02280ED920680068FD
:100D800000F0010048B9E06D40F01000E065206E11
:100D900040F0010020660120C3E72068006800F0F1
:100DA00001000028DED00020BBE700003F000080EB
:100DB0000003005068000020400D030010B51388A8
:100DC00000EE103AB8EE400A80ED020A538800EEB9
:100DD000103AB8EE400A80ED030A938800EE103A0C
:100DE000B8EE400A80ED040AA94BDB8800EE103A09
:100DF000B8EE400A80ED050A90ED050ADFEDA50A80
:100E000030EE600AA44BD3ED050A20EE200A80EDF7
:100E10000C0A4B78002B63D10B78002B60D1838EAA
:100E200045F6C054A34256DA838E45F2F054A342ED
:100E30004DDD90ED020ADFED990A20EE200ADFED8C
:100E4000980A80EE201A80ED091A90ED030ADFED72
:100E5000930A20EE200ADFED920A80EE201A80ED40
:100E60000A1A90ED040ADFED8D0A20EE200ADFED6C
:100E70008C0A80EE201A80ED0B1A90ED060ADFED49
:100E8000890A20EE200AD0ED090A9FED871A00EEAC
:100E9000810A80ED060A90ED070ADFED820A20EE56
:100EA000200AD0ED0A0A9FED801A00EE810A80ED3B
:100EB000070A90ED080ADFED7B0A20EE200AD0ED4C
:100EC0000B0A9FED791A00EE810A80ED080A838EE5
:100ED0005B1C838695E001234B700023838690E0A2
:100EE0004B78012B7DD190ED020ADFED6C0A60EEAC
:100EF000200A9FED6B1A80EE810AD0ED060A30EED3
:100F0000600AD0ED0E0A80EE201A80ED091A90EDED
:100F1000030ADFED620A60EE200A9FED611A80EE9F
:100F2000810AD0ED070A30EE600AD0ED0E0A80EE9D
:100F3000201A80ED0A1A90ED040ADFED580A20EE1F
:100F4000200A9FED571AC0EE010A90ED080A30EE14
:100F5000C00AD0ED0E0A80EE201A80ED0B1A8B78B5
:100F6000012B0AD190ED0A0AD0ED0B0A30EE200ACF
:100F7000B1EE400A80ED090A1AE08B78022B0AD103
:100F800090ED090AD0ED0B0A30EE200AB1EE400ACE
:100F900080ED0A0A0CE08B78032B09D190ED090A49
:100FA000D0ED0A0A30EE200AB1EE400A80ED0B0ABD
:100FB00090ED0C0AD0ED000AB7EE001A70EE810A2F
:100FC000B4EEE00AF1EE10FA03DD90ED000A80EDD8
:100FD0000C0A90ED0C0ADFED350A20EE200A344BA6
:100FE00000E00EE083ED000A90ED0C0ADFED2F0A21
:100FF00020EE200ADFED2F0A20EE200A2E4B83ED93
:10100000080A90ED0C0AD0ED000AB7EE001A70EE57
:10101000810AB4EEE00AF1EE10FA0CDC90ED0C0A55
:10102000D0ED000AB7EE001A70EEC10AB4EEE00A85
:10103000F1EE10FA02D201230B7027E090ED090ABD
:10104000D0ED010AB4EEE00AF1EE10FA11DC90EDF9
:101050000B0AD0ED010AB4EEE00AF1EE10FA08DC5A
:1010600090ED0B0AD0ED010AB4EEE00AF1EE10FAB1
:1010700009DD0B895B1C0B810B89B3F57A6F05DDEC
:1010800002230B7002E000230B810B7010BD0000E7
:1010900000000020000000005C02002033335340B9
:1010A00000008045A4707D3F0AD7233C3ACD133F12
:1010B00018010020907BEC3E7401002003E030EE2C
:1010C000601AB0EE410AB4EEE00AF1EE10FAF6DC76
:1010D00003E030EE201AB0EE410AB5EEC00AF1EEA0
:1010E00010FAF6D3704700BFFEE7000008B50020F5
:1010F000124908604860022088600120C8601048DA
:101100000078401E0F49085C0C49086140F2FF70EE
:1011100048610D4802F0C4FA03200346022211463A
:101120000090094802F0EEFA00220121064802F080
:10113000F1F9054802F001FE08BD0000E8070020B3
:10114000400200203C00002008030020F0B50B46C0
:101150000024002600EE106A0021DFED1F1AF0EED9
:10116000610A0025082A00D0F0BD047846783604CC
:10117000877846EA0726C7783E4300EE106A017971
:101180008679477946EA072521B9F8EE401AF0EE4C
:10119000610A09E0012907D1F8EE401ABFEE002AE2
:1011A00061EE821AF0EE610A0C4ED6ED001A9FED48
:1011B0000C2A61EE821A9FED0B2A82EE211A60EE54
:1011C000811AF0EE610A084E73803173C6ED040A8D
:1011D0003471B58200BFC7E7000000005C02002048
:1011E000000080460000B443400200202DE9F04199
:1011F00005460F4614469846069E14480560002092
:101200001249486088600820C86000200861486171
:101210008861C861522008620D480770200C0C4993
:101220004870200A8870CC70084680F80480300A24
:1012300048718E710A460549064802F0FCF910B162
:101240000120BDE8F0810020FBE700009C070020A2
:101250002C0000200803002070B52DED028B82B019
:10126000054600269FEDCB0AB0EE408ACA480078BA
:10127000401ECA490C5CA5427ED1C74800790E28A1
:101280007BD2DFE800F07A070E232E4290A3C8FB42
:10129000F97AF8F7C048017B0078401EC04A115423
:1012A0006CE1C04890ED130ABB48D0ED040A30EE63
:1012B000200ABD4880ED240AB748808A00EE100A53
:1012C000B8EE400AB84880ED180A57E1B54890EDED
:1012D000130AB148D0ED040A30EE600A80ED060A28
:1012E0004CE1AD4890ED040AD0ED060A30EE200A3C
:1012F000AD4880ED240AA848808A00EE100AB8EEB6
:10130000400AA94880ED180A38E1A64890ED130A72
:10131000A148D0ED060A30EE600AB0EE408A05E042
:101320009FEDA20A38EE400AB0EE408A9FED9F0A78
:10133000B4EEC08AF1EE10FAF2DC05E09FED9B0AF4
:1013400038EE000AB0EE408AB5EEC08AF1EE10FA2F
:10135000F4D3974890ED000A20EE080ADFED950AD5
:1013600020EE200ADFED910A80EE201ABCEEC10AC1
:1013700010EE106A8C4801E007E1FEE090ED180ADB
:10138000BCEEC00A10EE100A80B2834900900978C2
:10139000491E834A535C04F11001C8B2324605214C
:1013A000FFF724FFEAE000208349088083490860B2
:1013B000794900900978491E794A535C04F110017B
:1013C000C8B200220621FFF711FFD7E07C48008851
:1013D000401E7949098888421CD16F4890ED040A63
:1013E000D0ED060A30EE200A76487349098800EBF2
:1013F000810080ED000A6848808A062190FBF1F0A8
:1014000071496D4A128821F812006B480088401C0F
:1014100069490880B2E00120684908605E48808A16
:1014200000EE100AB8EE400A6148D0ED000A80EEE6
:10143000201ABCEEC10A10EE100A64490880084662
:101440000088012801DA0120088060480088C00473
:10145000000C5E49088000204F4900900978491E21
:101460004F4A535C04F11001C8B200220821FFF773
:10147000BDFE83E077E06BE013E0FFE74F480068D4
:1014800070B90020444900900978491E444A535CD1
:1014900004F11001C8B248490A880921FFF7A6FEE5
:1014A0006CE0454800784A49C8714A48C0794449C7
:1014B000088041480088098888423AD13E4800881F
:1014C000002836DD3448808A00EE100AF8EE400A23
:1014D000374890ED001A80EE810AF2EE000A20EE05
:1014E000200ABCEEC00A10EE100A81B23248008811
:1014F000401E394A22F810102F480088401E11461D
:1015000031F81000082805DA08212B480088401E11
:1015100022F810100020204900900978491E204A26
:10152000535C04F11001C8B200220A21FFF75EFEED
:101530000DE00020184900900978491E184A535CB4
:1015400004F11001C8B200220B21FFF74FFE15E095
:101550000120154981F8C4000F4890ED040A08469F
:1015600080ED320A0AE000200F4981F8C4009FEDA7
:10157000090A084680ED320A00E000BF00BF0020E3
:101580000549087101201549086002B0BDEC028BC5
:1015900070BD000000000000400200203C00002060
:1015A00042000020C8000020740100200000B44365
:1015B0005C0200200000804648000020500000200F
:1015C0004A00002000080020580A00205400002093
:1015D0002C00002034000020840B0020C0070020D5
:1015E000184A194B1A60DFED190A60EE200AFDEE69
:1015F000E00A10EE902A1B1D1A606FF000421A607C
:101600001A1D126800EE902AF8EEE00AB7EE001AF2
:1016100060EE810A9FED0E1AC0EE811AC0ED001A2D
:101620001A1D126800EE902AF8EEE00AB7EE001AD2
:1016300060EE810A9FED061AC0EE811AC1ED001A14
:101640007047000061001800000C024083F9224E30
:101650000000004F2DE9F04106460F4614461D4696
:1016600096ED090A84ED090A96ED090AD6ED0A0AF3
:10167000B0EE001A01EE200ADFED160A80EE201A05
:1016800084ED0A1AD7ED0C0AB0EE600A05F1580194
:10169000081FFFF7A5FF94ED090AD4ED0A0A95ED9E
:1016A000151AD5ED161A20EE212A00EE812A84EDB6
:1016B0000E2AB1EE402A22EE012A00EEA12A84ED84
:1016C000042A00BF04F10C01081D00F02BFDBDE849
:1016D000F0810000D7B3DD3F05E0DFED0E0A70EECC
:1016E000600AB0EE600ADFED0C0AB4EEE00AF1EE3B
:1016F00010FAF2DA05E0DFED070A70EE200AB0EE2C
:10170000600ADFED060AB4EEE00AF1EE10FAF2D359
:1017100070470000DB0FC940DB0F4940DB0F49C0B9
:1017200010B5024801F098FD10BD0000FC04002037
:1017300010B5024801F090FD10BD00005C050020CE
:1017400030B50E4D0468AC4201D20D4901E00C49A0
:1017500020310B460478083C1425B4FBF5F2446CA8
:10176000A40803EB84048464054C8034C46402F050
:101770001F050124AC40046530BD00000804024090
:101780000008024001794A1E064B03EB82024265C3
:10179000044A403282654A1E02F01F0301229A4029
:1017A000C26570470009024030B5D0E913546C603F
:1017B000446D14B1D0E916546C6090F8444004F0C4
:1017C0001F050124AC40056C6C600468636084688C
:1017D000102C04D10468A2600468E16003E004688E
:1017E000A1600468E26030BDB2EE000AD04880ED2E
:1017F000000A9FEDD00A80ED010A9FEDCF0A80ED2F
:10180000020A9FEDCE0A80ED030A0E20C849087433
:101810009FEDCB0A084680ED050AB3EE080AC948D9
:1018200080ED000AB1EE040A80ED010A9FEDC60AC0
:1018300080ED020A9FEDC40A80ED030A9FEDC20A03
:1018400080ED040A9FEDC00A80ED050A9FEDBF0AF6
:1018500080ED060A9FEDBD0A80ED070A9FEDBB0AE9
:1018600080ED080A9FEDB80A80ED090A9FEDB60ADF
:1018700080ED0A0A9FEDB40A80ED0B0A9FEDB20AD3
:1018800080ED0C0A0020AF498886A94890ED030A34
:10189000DFEDAF0A20EE200A084680ED0E0A002098
:1018A000AC49087048700120C87000200871487168
:1018B000088188700120A84908709FEDA30A084696
:1018C00080ED010A002008819FED9F0A084680ED07
:1018D000030A9FED9D0A80ED040A002048619FEDF8
:1018E0009A0A084680ED060A9FED970A80ED070ADE
:1018F0009FED950A80ED080A9FED930A80ED090A95
:10190000B2EE040A80ED0A0A9FED8F0A80ED0B0A01
:101910009FED8D0A80ED0C0A9FED8B0A80ED0D0A7C
:101920009FED890A80ED0E0A0020888708649FEDEC
:10193000860A084680ED110A9FED830A80ED120A9F
:101940009FED810A80ED130A9FED7F0A834880EDA9
:10195000000A9FED7D0A80ED010A9FED7B0A80ED74
:10196000020A9FED790A80ED030A00207B49087680
:1019700048768876C87608779FED730A084680ED2A
:10198000080A9FED710A80ED090A9FED6F0A80ED4C
:101990000A0A41F2680088879FED6B0A084680EDCD
:1019A0000B0A9FED690A80ED0C0A9FED670A80ED36
:1019B0000D0A9FED650A80ED0E0A9FED630A80ED2A
:1019C000100A9FED610A80ED110A9FED5F0A80ED1C
:1019D000120A0020A1F84C00A1F84E00A1F8500016
:1019E0009FED590A084680ED150A9FED570A80EDD4
:1019F000160A9FED5B0A5B4880ED000A9FED5A0ACC
:101A000080ED010A9FED500A80ED020A9FED4E0A1B
:101A100080ED030A9FED4C0A80ED050A9FED4A0A0E
:101A200080ED060A9FED480A80ED070A9FED460A01
:101A300080ED080A9FED440A80ED090A9FED420AF5
:101A400080ED0A0A9FED400A80ED0B0AB0EE0C0A09
:101A500080ED0C0A9FED3C0A80ED0D0A9FED3A0ADD
:101A600080ED0E0A9FED380A80ED040A9FED360ADC
:101A700080ED0F0A9FED340A80ED100A9FED320AC7
:101A800080ED110A9FED390A80ED160A9FED380AA4
:101A900080ED170A9FED2C0A80ED190A9FED2A0AA6
:101AA00080ED1A0A9FED280A80ED1B0A9FED260A99
:101AB00080ED1C0A9FED240A80ED1D0A9FED220A8D
:101AC00080ED1E0AB0EE0C0A80ED1F0A9FED290A78
:101AD00080ED200A0020234981F88400B3EE090A32
:101AE000084680ED220A9FED180A80ED230A9FED3B
:101AF000160A80ED240A9FED140A80ED250A9FED59
:101B0000120A80ED260A9FED100A80ED270A0020B8
:101B100081F8A0009FED180A084680ED290A0020F0
:101B200081F8C4009FED080A084680ED320A70472C
:101B30005C020020E65AB43954E3853F0AD7A33B40
:101B4000CCCC383C80000020000000003333D33F71
:101B500000004842BC000020C800002018010020FE
:101B6000AAF4343F740100203D67B63D0AD7233CF8
:101B700017B7D1380000FA4400007A4470470000DB
:101B800010B52DED068BB0EE408A044600EE104AEB
:101B9000B8EE400A28EE000AB0EE408A18EE100AAD
:101BA000FEF779FB41EC1A0B9FED101BB0EE4A0AD1
:101BB000F0EE6A0A07F0AEFBB0EE409AF0EE609AE3
:101BC00051EC190BFEF792FB08EE900AF5EEC08A75
:101BD000F1EE10FA04DDB0EE680ABDEC068B10BD24
:101BE0009FED040A38EE800AF7E7000000000000CD
:101BF000008076400000B44310B52C4803F03CFD53
:101C00002B480068006840F0100029490968086006
:101C100064222849264804F06FFD274803F0E4FCBD
:101C20000021254804F070F80421234804F06CF8E2
:101C30000821214804F068F80C211F4804F064F8DA
:101C400000211D4803F0EEFB04211B4803F0EAFBD2
:101C50000821194803F0E6FB40F64D0016490968D3
:101C6000486315490968886313490968C863FFF721
:101C7000BBFD012011490870087805F0A9FA00F0B1
:101C80003BFA07F0EFFBFFF731FA7F210C4800F039
:101C900059FA0B480068406840F02000084909687C
:101CA0004860074800F0D8FD10BD00001C0400206B
:101CB00068040020BC050020D00300204002002062
:101CC0007402002070B52DED028B04460D4620787D
:101CD000012809D12089C0F5804000EE100AB8EE35
:101CE000C00A84ED030A06E0208900EE100AB8EE6F
:101CF000400A84ED030A94ED0E0AD4ED030A9FED29
:101D00009E1A10EE810A84ED070AD4ED070AB0EEA0
:101D1000600ADFED9A0AFFF7D1F984ED070A9849C6
:101D2000087CD4ED070AB0EE600AFFF729FF84EDC6
:101D3000080AD4ED080AB0EE600ADFED900AFFF75A
:101D4000BDF984ED080A94ED070AD4ED110A30EECE
:101D5000608A9FED8C0AB4EEC08AF1EE10FA09DDBC
:101D60009FED860A38EE400AB0EE408A206C401E95
:101D700020640FE09FED840AB4EEC08AF1EE10FA01
:101D800008D29FED7E0A38EE000AB0EE408A206C41
:101D9000401C206494ED070AD4ED100AF8EEE00A26
:101DA0009FED761A00EE810A84ED120A744890EDD8
:101DB000000AF7EE000AB4EE600AF1EE10FA04D160
:101DC00094ED070A84ED130A10E094ED120A6C48B2
:101DD000D0ED000A80EE201AF0EE411ADFED670A1E
:101DE000B0EE610AFFF76AF984ED130A94ED070A71
:101DF00084ED110A687801282FD1E87868BB634820
:101E00009FED631AF7EE000A9FED610A06F0A2F952
:101E1000A08F401CA087A08F44F62C4188421CDD77
:101E200094ED0D0AD4ED070A30EE200A84ED0D0A78
:101E3000A08F44F6206188420FDB94ED0D0ADFEDA0
:101E4000550A80EE201A84ED0E1A9FED510A84ED9A
:101E50000D0A0020A0870120E870287901283BD1D5
:101E6000B7EE000A84ED010A94ED090AD4ED010AE7
:101E70009FED491A00EE810A84ED090AD4ED090AA2
:101E8000B0EE600ADFED3D0AFFF718F984ED090AAC
:101E9000D4ED090AB0EE600A0E20FFF771FE84ED62
:101EA0000B0A94ED0B0ADFED3D0A20EE200A84EDCB
:101EB0000B0AD4ED0B0AB0EE600ADFED390AFFF72A
:101EC000FDF884ED0B0AD4ED0B0AB0EE600AFFF7C3
:101ED00003FC84ED0C0A4BE0287902281ED194ED16
:101EE000080A84ED0B0A94ED0B0ADFED2C0A20EEB4
:101EF000200A84ED0B0AD4ED0B0AB0EE600ADFED88
:101F0000280AFFF7DBF884ED0B0AD4ED0B0AB0EEDC
:101F1000600AFFF7E1FB84ED0C0A29E02879032829
:101F200026D19FED200A84ED0A0AD4ED0A0AB0EE0C
:101F3000600A0E20FFF724FE84ED0B0A94ED0B0AD5
:101F4000DFED160A20EE200A84ED0B0AD4ED0B0A11
:101F5000B0EE600ADFED120AFFF7B0F884ED0B0A6D
:101F6000D4ED0B0AB0EE600AFFF7B6FB84ED0C0A65
:101F7000BDEC028B70BD0000E2FFB33C0000B44337
:101F80005C02002000003443000034C3180100202C
:101F9000000000000000FA43BC74933C34FA8E3C0D
:101FA000DB0FC9400000204272B600BFFEE7000010
:101FB00010B5024801F06FFC10BD000008030020BE
:101FC00010B5194901640368D3F8803023F4F8147C
:101FD000838E44EA03430468C4F8803001F170033F
:101FE00043640368D3F8803023F0706490F838308D
:101FF00044EA03630468C4F8803001F1B0038364E9
:1020000001F5C473C36401F51873036501F51E730C
:1020100043650A4602E000231360121D01F5547364
:102020009A42F8D310BD000000A400402DE9F04111
:10203000054614461E46D1F804C0BCF1000F0AD173
:10204000D1F810C0D1F808804CEA080CB1F8008033
:102050004CEA88430BE0D1F810C04CF0804CD1F82A
:1020600008804CEA080CD1F800804CEA080391F88B
:102070002080D1F81CC04CEA086CD1F818804CEADA
:10208000080CD1F814804CEA080CB1F80C804CEA2A
:10209000084706EBC608D5F854C00CEBC80213601D
:1020A000121D1760121D002019E000F1030C14F836
:1020B0000CC04FEA0C6800F1020C14F80CC048EA9E
:1020C0000C4800F1010C14F80CC048EA0C2C14F870
:1020D00000804CEA080CC2F800C0121D001DDFF899
:1020E0001480D1F80CC018F80CC08445DDD8BDE8C8
:1020F000F08100002895000808B505480068054BE8
:10210000054A0090054801880548FEF791FD08BD85
:10211000280000206C060020DC9400082400002029
:102120003C0600207FB505460C4695ED000A8DED76
:10213000000A0123224669460148FEF723FB7FBDC2
:102140003C060020F8B504460D460020009000BF74
:1021500094F85800012801D10220F8BD012084F82C
:10216000580000BF2046FEF77BFD06468EBBE06DA3
:1021700020F4885040F00200E065206881681B4A26
:10218000114005F0804242F000421143816000BFDF
:1021900013E00098401C00901549009888420CD329
:1021A000E06D20F0020040F01000E06500BF00206C
:1021B00084F8580000BF0120CFE720688168C90F6C
:1021C0000029E6D1E06D20F0020040F00100E0655A
:1021D00004E0FFE7E06D40F01000E06500BF002084
:1021E00084F8580000BF3046B7E70000C0FFFF3F4B
:1021F00002DE0400704700002DE9FC5F05460C4636
:102200000020019000900027686900B100BFFE49DE
:10221000E068884200D000E000BF00BF95F8580099
:10222000012802D10220BDE8FC9F012085F858005A
:1022300000BF686910B1206A01281ED160680928B2
:102240004ED1A06A60B194F8280000F07C002168AB
:10225000C1F3846140EA4120E16A40EA010703E0FA
:102260002068C0F3846047022868C06CE7490840D2
:1022700038432968C8646F6632E0A86E90B9216A55
:10228000A96600206866A06A50B1206A401E94F8D2
:10229000281001F07C010843E16A40EA010701E0EF
:1022A000206A471E207900F01F01002088408743E4
:1022B0002068C0F38460217901F01F018840074342
:1022C000A86E401EA866686E38436866A86E38B966
:1022D0002868C06CCD490840696E08432968C86405
:1022E000286804F0ADFAD8B994F8250070B994F8CC
:1022F0002600400594F8241040EA01502968C96876
:1023000021F4401108432968C86009E02868C068C2
:1023100020F4401094F8261040EA41502968C86023
:10232000286804F0B6FA8246286804F089FA8146E3
:10233000BAF1000F7ED1B9F1000FFBD1A06A08B14C
:10234000E06A88B994F82500012806D12868C06899
:1023500040F000702968C86017E02868C06820F065
:1023600000702968C86010E094F82500012806D1A3
:10237000E86D40F02000E8650120019005E0286844
:10238000C06820F000702968C86094F83000012807
:102390000CD1606B40F00200A16B08432968096909
:1023A00021F4FF7108432968086105E02868006985
:1023B00020F0020029680861A068B0F1004F0AD13E
:1023C00021680022286804F072FA4FF00041286862
:1023D00004F092FA08E0A2682168286804F067FA1D
:1023E0000021286804F088FA60692968C968C1F387
:1023F000C101490000FA01F82069042840D028688A
:102400002268216900F1600C0CEB8103D3F800C055
:10241000DFF8FCB10CEA0B0C02F0F84B4BF0004B70
:102420004BEA080B4CEA0B0CC3F800C000BF28684D
:10243000A26900E0CCE0216900F1600C0CEB8103A3
:10244000D3F800C02CF0807C4CEA020CC3F800C02A
:1024500000BF2868227F2169012A01D1520600E0CD
:102460000022134600F1600C0CEB8102D2F800C090
:102470002CF0007C4CEA030CC2F800C000BFA7E0BF
:102480000021286804F0C9F9C0F3120030B9002116
:10249000286804F0C2F9C0F3846007E000212868CE
:1024A00004F0BBF990FAA0F0B0FA80F02168C1F313
:1024B000120119B92168C1F3846104E0216891FA1D
:1024C000A1F1B1FA81F1884204D1002211462868B5
:1024D00004F007FA0121286804F09FF9C0F3120004
:1024E00030B90121286804F098F9C0F3846007E04E
:1024F0000121286804F091F990FAA0F0B0FA80F078
:102500002168C1F3120119B92168C1F3846104E0A3
:10251000216891FAA1F1B1FA81F1884204D1002237
:102520000121286804F0DDF90221286804F075F91A
:10253000C0F3120030B90221286804F06EF9C0F32C
:10254000846007E00221286804F067F990FAA0F09F
:10255000B0FA80F02168C1F3120119B92168C1F302
:10256000846104E0216891FAA1F1B1FA81F1884215
:1025700004D100220221286804F0B3F9032128685D
:1025800004F04BF9C0F3120030B90321286804F0BD
:1025900044F9C0F3846007E00321286804F03DF9A2
:1025A00090FAA0F0B0FA80F02168C1F3120119B9D5
:1025B0002168C1F3846104E0216891FAA1F1B1FAC4
:1025C00081F1884204D100220321286804F089F9AE
:1025D000286804F04FF9002873D12868E268216860
:1025E000D0F8B030C1F3120C23EA0C0302F0180B40
:1025F000DFF820C02CFA0BFC0CEA010C43EA0C03B8
:10260000C0F8B03000BF07E000007F400040100479
:1026100000F0FF03FFFF07007849E068884250D1CF
:102620002368C3F312031BB92368C3F3846304E074
:10263000236893FAA3F3B3FA83F35B1C03F01F033D
:10264000092B3FD82368C3F312031BB92368C3F3D4
:10265000846304E0236893FAA3F3B3FA83F35B1C67
:1026600003F01F034FF0010C0CFA03FC2368C3F3C3
:1026700012031BB92368C3F3846304E0236893FA4D
:10268000A3F3B3FA83F35B1C03F01F034CEA836CE0
:102690002368C3F312031BB92368C3F3846304E004
:1026A000236893FAA3F3B3FA83F35B1C03F01F03CD
:1026B00003EB43034FF0000B4BEA03534CEA0303D5
:1026C0003FE043E02368C3F312031BB92368C3F35D
:1026D000846304E0236893FAA3F3B3FA83F35B1CE7
:1026E00003F01F034FF0010C0CFA03FC2368C3F343
:1026F00012031BB92368C3F3846304E0236893FACD
:10270000A3F3B3FA83F35B1C03F01F034CEA836C5F
:102710002368C3F312031BB92368C3F3846304E083
:10272000236893FAA3F3B3FA83F35B1C03F01F034C
:102730000A3B03EB43034FF0007B4BEA03534CEAA5
:1027400003031946A268286804F0B1F82C492068F0
:10275000084050B300BF2B48806800F0E07600BF0F
:1027600029492068884203D02849206888421DD121
:1027700006F40000D0B92868B0F1A04F37D146F474
:102780000001204804F0A7F8214800682149B0FB67
:10279000F1F0801C00EB40008000009002E0009807
:1027A000401E009000980028F9D120E01A492068C6
:1027B00088420CD106F0807048B9184928688842D0
:1027C00015D046F080710F4804F085F80FE01449E9
:1027D000206888420BD106F4800040B90F49286870
:1027E000884204D046F48001064804F074F800BF23
:1027F000002085F8580000BF019814E500007F40D4
:102800000000088000030050000021C31000C090A9
:1028100068000020400D0300000052C70001005076
:10282000000084CB10B504462068D0F88000084929
:1028300008802068D0F8840048802068D0F888009C
:1028400088802068D0F88C00C88004F061FF10BD3B
:1028500000000020704700002DE9F041044600BF51
:102860003D48806800F01F000546206803F0E8FF3F
:1028700010B10220BDE8F0812068C06800F0004778
:102880002068C06C00F4C07030B92FB9E06D40F022
:102890002000E0650120EDE700BF94F85800012812
:1028A00001D10220E6E7012084F8580000BF20464D
:1028B000FEF720FA0646002E46D1E06D00F4807047
:1028C00020B1206E20F00800206601E00020206684
:1028D000E06D42F20101884340F48050E0651F49F9
:1028E0002068884202D14FF0A04000E020682168B3
:1028F000884200D01DB9E06D20F48010E0656020B2
:102900002168086000BF002084F8580000BF134908
:102910002068884202D14FF0A04000E02068216882
:10292000884204D01DB1062D01D0072D07D12068A3
:1029300003F07CFF68B9206803F088FF09E0E06DD0
:1029400040F48010E06504E000BF002084F85800E7
:1029500000BF30468EE70000000300500001005029
:10296000704770472DE9F0439BB004460E464FF088
:102970000008306800B100BF00BF94F8580001287B
:1029800003D102201BB0BDE8F083012084F8580079
:1029900000BF0020179018902068B0F1A04F02D11E
:1029A0003148009001E000200090009850B9E06D9F
:1029B00040F02000E06500BF002084F8580000BF10
:1029C0000120DFE7009803F064FF0746206803F06A
:1029D00060FFD8BBD7BB254D306800B394F83800F2
:1029E000716841EA4030A96821F460410843A86059
:1029F0004FF0A04003F03EFF81461B4803F03AFF32
:102A000049EA0009B9F1000F27D1B16830680843DD
:102A1000A96840F61F7291430843A8601DE0A868AA
:102A200020F46040A8604FF0A04003F023FF8146EF
:102A30000D4803F01FFF49EA0009B9F1000F0CD15E
:102A4000A86840F61F718843A86006E0FFE7E06DC4
:102A500040F02000E0654FF0010800BF002084F83E
:102A6000580000BF40468DE70001005000030050B1
:102A7000704770472DE9F84F044600200090206809
:102A8000056820684668C54803F0C2FE074605F0A1
:102A90000200022811D106F0020002280DD1E06DDB
:102AA00000F0100018B9E06D40F40060E0652046C9
:102AB000FFF7A0FB02202168086005F0040004284D
:102AC00003D106F00400042807D005F00800082808
:102AD0005FD106F0080008285BD1E06D00F010001F
:102AE00018B9E06D40F40070E065206803F0D6FE90
:102AF000002848D0AA492068884202D14FF0A0405F
:102B000000E020682168884204D01FB1052F01D061
:102B1000092F03D12068D0F80C800AE0A049206872
:102B2000884202D14FF0A04000E020688346DBF8E5
:102B30000C8008F40050B0F5005F24D020680068D5
:102B400000F0080008281ED1206803F09DFE90B90F
:102B50002068406820F00C0021684860E06D20F497
:102B60008070E065E06D00F4805060B9E06D40F089
:102B70000100E06507E0E06D40F01000E065206EC8
:102B800040F0010020662046FFF772FF0C2021680C
:102B9000086005F02000202803D106F0200020283E
:102BA00007D005F04000402872D106F040004028D0
:102BB0006ED1E06D00F0100018B9E06D40F40050E7
:102BC000E0652068C16C01F4C07109B9012100E021
:102BD00000218A4600BF206803F060FE81467049EC
:102BE0002068884202D14FF0A04000E020682168B0
:102BF000884204D01FB1062F01D0072F03D12068CF
:102C0000D0F80C800AE066492068884202D14FF073
:102C1000A04000E020688346DBF80C80BAF1000F8A
:102C200030D008F0007028B1B9F1000F2AD008F4B4
:102C3000005038BB2068006800F04000402821D1D7
:102C400008F40010F0B9206803F0F5FD90B9206891
:102C5000406820F0600021684860E06D20F48050FA
:102C6000E065E06D00F4807060B9E06D40F0010057
:102C7000E06507E0E06D40F01000E065206E40F098
:102C8000010020662046FFF7CDFD60202168086026
:102C900005F0800080280DD106F08000802809D141
:102CA000E06D40F48030E065204600F0A9F9802016
:102CB0002168086005F48070B0F5807F0FD106F4BC
:102CC0008070B0F5807F0AD1E06D40F40030E0659F
:102CD0002046FFF745FE4FF480702168086005F438
:102CE0000070B0F5007F0FD106F40070B0F5007FE2
:102CF0000AD1E06D40F48020E0652046FFF731FE08
:102D00004FF400702168086005F0100010282AD1E7
:102D100006F01000102826D1E06B10B901200090B9
:102D200010E047B100BF1D48806800F4604048B122
:102D30000120009006E02068C06800F0010008B1A2
:102D400001200090009801280AD1E06D40F48060D5
:102D5000E065206E40F0020020662046FFF789FE05
:102D600010202168086005F48060B0F5806F13D1F1
:102D700006F48060B0F5806F0ED1E06D40F48040C5
:102D8000E065206E40F0080020664FF48060216806
:102D900008602046FFF75EFDBDE8F88F0003005095
:102DA000000100502DE9F84304464FF000080020D0
:102DB000009014B90120BDE8F883606920B194F84F
:102DC0002400012800D100BFE06D30B9204600F09A
:102DD00019F90020206684F8580020688168C1F342
:102DE000407131B1206881687E4A1140816000BF26
:102DF00000BF206803F043FDB0B9206881687A4ABB
:102E0000114041F08051816000BF784800687849E6
:102E1000B0FBF1F0401C4000009002E00098401E22
:102E2000009000980028F9D1206803F028FD48B9E7
:102E3000E06D40F01000E065206E40F0010020667B
:102E40004FF00108206803F01FFD0646E06D00F01A
:102E50001000002877D1002EFCD1E06D20F48070A6
:102E600040F00200E065206803F0FFFCB0B94FF0CD
:102E7000A04003F0FAFC81465E4803F0F6FC49EA04
:102E80000009B9F1000F09D160685B49896821F434
:102E90007C110143584A916000BF00BF607FE16B25
:102EA00041EA4030E1680843A168084394F82410DF
:102EB00040EA014594F82400012803D1208D401EEA
:102EC00045EA4045E06A28B1A08D00F47870216B96
:102ED000084305432068C0684849084028432168E2
:102EE000C8602068006920F04060616B0843216879
:102EF0000861206803F09FFC0746002E50D1EFBB0D
:102F0000207F002141EA803194F8380041EA4005F1
:102F10002068C06844F20201884328432168C860E1
:102F2000206988B12068006940F480302168086118
:102F30002068D0F8C0006FF30D00216908432168B4
:102F4000C1F8C0000EE045E02068006920F4803040
:102F5000216808612068D0F8C0006FF30D00216877
:102F6000C1F8C00094F84000012813D1606C40F013
:102F70000101A06C0843E16C084300E010E0216D02
:102F800008432168096940F2FC72914308432168B3
:102F9000086105E02068006920F0010021680861EF
:102FA0006069012809D12068006B20F00F00216AB8
:102FB000491E08432168086305E02068006B20F083
:102FC0000F0021680863E06D20F0020040F001006E
:102FD000E06505E0E06D40F01000E0654FF00108AD
:102FE0004046E8E6C0FFFF5FC0FFFF7F68000020AB
:102FF000400D030000010050000300500740F0FFA7
:103000007047000010B598B00446142113A8FDF7CE
:1030100037F9442102A8FDF733F92068B0F1A04F39
:1030200038D14FF4004002908003119002A801F0C3
:10303000F9F808B1FEF7B8FF00BF1748C06C40F4BC
:1030400000501549C8640846C06C00F40050019057
:1030500000BF00BF00BF0846C06C40F00100C8645C
:103060000846C06C00F00100019000BF00BF0F20B7
:103070001390032014900020159013A94FF0904056
:1030800000F078FE00221146122000F0E3FF12202B
:1030900000F0CCFF18B010BD0010024030B5024661
:1030A000002092F82130012B14D18C690B68234346
:1030B0004C6823430C6923434C6923438C682343A6
:1030C000CC68234314682468054D2C4023431468BE
:1030D000236004E0536A43F002035362012030BDD1
:1030E00000F887FF10B504460CB9012010BD94F814
:1030F000210028B9002084F82000204600F00CF8B8
:10310000002060626060A060E0602061606101207A
:1031100084F821000020E9E708B5094A01689142D6
:103120000DD100BF0749896C41F00801054A91643F
:103130001146896C01F00801009100BF00BF08BD75
:10314000000C0240001002400146002091F82520AA
:10315000022A03D00422CA63012027E00A68126809
:1031600022F00E020B681A608A6C126822F48072D8
:103170008B6C1A600A68126822F001020B681A60F0
:1031800091F8442002F01F0301229A400B6C5A6010
:10319000D1E913325A604A6D42B14A6D126822F485
:1031A00080724B6D1A60D1E916325A60012281F8A3
:1031B000252000BF002281F8242000BF704770B591
:1031C0000446002594F8250002280BD00420E06373
:1031D000012084F8250000BF002084F8240000BFEF
:1031E000012534E02068006820F00E0021680860A6
:1031F0002068006820F0010021680860A06C006869
:1032000020F48070A16C086094F8440000F01F0165
:1032100001208840216C4860D4E913104860606D3B
:1032200040B1606D006820F48070616D0860D4E981
:1032300016104860012084F8250000BF002084F8A3
:10324000240000BFA06B10B12046A16B8847284620
:1032500070BD0146C86B704770B50446206C0568A8
:103260002068066894F8440000F01F01042088409C
:103270002840E0B106F00400C8B12068006800F002
:10328000200028B92068006820F004002168086048
:1032900094F8440000F01F0104208840216C48602D
:1032A000206B002856D02046216B884752E094F8C6
:1032B000440000F01F0102208840284018B306F0A7
:1032C000020000B32068006800F0200040B92068C8
:1032D000006820F00A0021680860012084F82500B9
:1032E00094F8440000F01F0102208840216C4860DF
:1032F00000BF002084F8240000BFE06A50B32046DD
:10330000E16A884726E094F8440000F01F01082095
:1033100088402840F0B106F00800D8B12068006865
:1033200020F00E002168086094F8440000F01F01AE
:1033300001208840216C48600120E06384F825006A
:1033400000BF002084F8240000BF606B10B120464D
:10335000616B884770BD000070B504460CB9012050
:1033600070BD2F49206888420BD22E492068401A30
:103370001421B0FBF1F0800060642A480838206412
:103380000AE027492068401A1421B0FBF1F08000C0
:103390006064234808382064022084F825002068EF
:1033A000056847F6F0708543D4E9020108432169B6
:1033B000084361690843A1690843E1690843216A38
:1033C00008430543206805602046FEF7B9F9A06868
:1033D000B0F5804F01D1002060602079A16C0860B9
:1033E000D4E913104860606860B16068042809D8A7
:1033F0002046FEF7C7F90020616D0860D4E9161079
:10340000486003E000206065A065E0650020E0639F
:10341000012084F82500002084F8240000BF9FE7E5
:1034200008040240080002402DE9F04104460D4620
:1034300016461F464FF0000800BF94F824000128EC
:1034400002D10220BDE8F081012084F8240000BFF1
:1034500094F8250001283FD1022084F8250000209F
:10346000E0632068006820F00100216808603B46A6
:10347000324629462046FEF797F9206B30B1206886
:10348000006840F00E00216808600BE020680068CA
:1034900020F00400216808602068006840F00A00FD
:1034A00021680860A06C006800F4803028B1A06C2E
:1034B000006840F48070A16C0860606D28B1606D98
:1034C000006840F48070616D08602068006840F01A
:1034D00001002168086006E000BF002084F8240095
:1034E00000BF4FF002084046ACE7000070B504464C
:1034F00000F02CFD06462546681C10B10448006803
:10350000054400BF00F022FD801BA842FAD370BD25
:103510006400002070B50346144693F85C5001F433
:10352000C07000B100BF012D01D0022D7DD11868FF
:10353000826D01F0070010B102F0010018B301F034
:10354000380010B102F00200E8B101F4E07010B1EF
:1035500002F00400B8B101F4F05010B102F008001C
:1035600088B101F4604010B102F0100058B101F4CC
:10357000403010B102F0200028B101F47C0040B1CD
:1035800002F0400028B91868C06D40F001001E68C4
:10359000F06501F0070010B102F0010018BB01F066
:1035A000380010B102F00200E8B901F4E07010B187
:1035B00002F00400B8B901F4F05010B102F00800B4
:1035C00088B901F4604010B102F0100058B901F45C
:1035D000403010B102F0200028B901F47C0040B165
:1035E00002F0400028B11868C06D40F002001E686B
:1035F000F06501F0800030B11868D0F8DC0020439D
:103600001E68C6F8DC0001F4807030B11868D0F88C
:10361000E00020431E68C6F8E0001868406D0843CB
:103620001E687065002070BDFFE7186E40F0020054
:1036300018660120F7E72DE9F04104460E461746CB
:10364000706800B900E000BF94F85C00022821D146
:103650002068D0F8C40000F4001030B1206E40F4AF
:10366000007020660120BDE8F0812068D0F8C40019
:10367000C0F301452B463A4631462046FEF7D6FCBC
:103680000120A8402168C1F8CC000120A840A06515
:103690000020E8E7206E40F0080020660120E2E705
:1036A000F0B5024692F85C60012E01D0022E23D1C3
:1036B000086880B9087A80070F7B40EAC7600F8AE4
:1036C00040EA07404F6940EA0704176C486807EB77
:1036D00080031C600EE00F7B086940EA47740F7A94
:1036E000486940EA8775576C486807EBC0031C605F
:1036F0001B1D1D600020F0BD106E40F00200106622
:103700000120F8E770B50446049D94F85C00012898
:1037100010D1080140EA820040EA430028432668AD
:10372000D6F8806026F03F0630432668C6F8800051
:10373000002070BD206E40F0040020660120F8E7F4
:10374000704770472DE9F04304460E469C4600231F
:1037500094F85C80B8F1020F7DD1402E25D120680D
:10376000D0F8900000F00F0030B9206E40F4807067
:1037700020660120BDE8F0832068D0F89000C0F3F7
:10378000006030B12068D0F88000C0F3402000B164
:1037900001232068D0F89000C0F30120034403EB1C
:1037A000C309A06C00EBC90123E02068D0F89800A1
:1037B00000F00F0028B9206E40F4807020660120D0
:1037C000D8E72068D0F89800C0F3006030B12068D6
:1037D000D0F88000C0F3002000B101232068D0F8A9
:1037E0009800C0F30120034403EBC309E06C00EB35
:1037F000C901086800F080405060506820B908682E
:10380000C0F38A40106003E0086820F06040106058
:10381000086800F000509060086800F000401061F7
:10382000091D088880B2D0610868C0F30340D060E9
:10383000086800F480105061086800F4001090617E
:103840000868C0F3066010620868C00F5062091D66
:103850000F46002504E015E0785D0CF805006D1CAE
:10386000DFF82C90D06819F80000A842F4D8402E58
:1038700003D12068C0F8943002E02068C0F89C3082
:10388000002077E7206E40F008002066012071E7F5
:103890002895000870472DE9FC5F04462068006DFC
:1038A00000F4E0572068406D07402068006D00F08C
:1038B00007082068406D00EA08082068006D00F0E5
:1038C00038092068406D00EA09092068006D00F49D
:1038D000710A2068406D00EA0A0A2068006D00F451
:1038E000602B2068406D00EA0B0B2068456D206856
:1038F000066DC6F3801040B1C5F3801028B140209A
:10390000216808652046FFF7C5FFC6F30020A0B177
:10391000C5F3002088B12068D0F8D8000090206856
:10392000D0F8E0000099084000904FF480702168C2
:1039300008652046009900F019FA2FB12068076544
:103940003946204600F014FAB8F1000F06D020687E
:10395000C0F850804146204600F0CEF9B9F1000F82
:1039600006D02068C0F850904946204600F0E4F99F
:10397000C6F3402048B1C5F3402030B14FF4007089
:1039800021680865204600F0F4F9C6F3C01098B12C
:10399000C5F3C01080B12068D0F8D4000190206831
:1039A000D0F8DC000199084001908020216808656A
:1039B0002046019900F0DBF9C6F3403048B1C5F369
:1039C000403030B14FF4005021680865204600F0C7
:1039D000CCF9C6F3C03048B1C5F3C03030B14FF4B4
:1039E000004021680865204600F0BEF9C6F380302B
:1039F00050B1C5F3803038B14FF48040216808657C
:103A0000206E40F080002066BBF1000F06D02068D9
:103A1000C0F850B059462046FFF793FEBAF1000FA8
:103A200006D02068C0F850A0206E40EA0A00206648
:103A3000206E10B12046FFF783FEBDE8FC9F00001A
:103A400070B504460CB9012070BD814920688842D8
:103A500000D100BFA068B0F5407F00D100BF94F84E
:103A60005C0028B9002084F85D00204600F0F4F8DE
:103A70002068806920F010002168886100F066FAF3
:103A800005460DE000F062FA401B0A2808D9206EB6
:103A900040F001002066032084F85C000120D3E799
:103AA0002068806900F008000828EBD02068806951
:103AB00040F001002168886100F048FA05460DE0F9
:103AC00000F044FA401B0A2808D9206E40F001009B
:103AD0002066032084F85C000120B5E72068806937
:103AE00000F001000028EBD02068806940F002005F
:103AF0002168886156492068884202D1554960682A
:103B00000860207C012806D12068806920F04000F0
:103B10002168886105E02068806940F040002168E4
:103B20008861607C012806D12068806940F480406B
:103B30002168886105E02068806920F48040216860
:103B40008861A07C012806D12068806920F480501B
:103B50002168886105E02068806940F48050216810
:103B600088612068806920F44070A168084321685A
:103B700088612068806920F0A4002168886120683D
:103B8000006920F0100021680861E068012806D172
:103B90002068806940F004002168886120E0E068C6
:103BA000F0B1E068022815D02068806940F08000FC
:103BB000216888612068006940F010002168086170
:103BC000E06803280CD12068806940F0200021685B
:103BD000886105E02068806940F0200021688861E4
:103BE000207E401E4106E069401E41EA0020216A15
:103BF000491E0843A18A491E40EA01402168C86164
:103C0000A068B0F5407F0FD1A06A401EE16A491E4E
:103C100040EA0121206B401E41EA0011A08C401EA9
:103C200041EA00402168C8602068D0F8C000E16B1C
:103C300008432168C1F8C0002046FEF7C1F9002002
:103C4000A0652066012084F85C000020FCE60000EE
:103C5000006400400065004010B598B0044614218F
:103C600013A8FCF70DFB442102A8FCF709FB20492F
:103C7000206888423AD18014029000030E9002A876
:103C800000F0D0FA08B1FEF78FF900BF1948806D37
:103C900040F00070174988650846806D00F000709C
:103CA000019000BF00BF00BF0846C06C40F001009B
:103CB000C8640846C06C00F00100019000BF00BF5E
:103CC0004FF4C050139002201490002015901690CD
:103CD0000920179013A9C00600F04CF800221146E5
:103CE000152000F0B7F9152000F0A0F918B010BDAC
:103CF000006400400010024070B505460C46012CDF
:103D000014D10B4B0B4A40212846FFF71BFD68B925
:103D10000848406850B90748C068082806D10548D7
:103D2000008881B208220248FDF710FA70BD000039
:103D300034000020C00700207047014691F85C0065
:103D400001280BD1022081F85C000868806920F00E
:103D500001000A689061002008667047086E40F014
:103D6000040008660120F8E7704770477047704705
:103D70007047704778B502460B460021CAE001261D
:103D80008E401D6805EA0604002C73D01D7905F0ED
:103D90000305012D04D01D7905F00305022D13D173
:103DA00090684E000325B540A8434E00DD68B5403D
:103DB00028439060506801258D40A8431D79C5F3C4
:103DC00000158D40284350601D7905F00305032D33
:103DD00009D0D0684E000325B540A8434E009D6829
:103DE000B5402843D0601D7905F00305022D13D19D
:103DF000CE0802F1200555F826004D07EE0E0F25DE
:103E0000B540A8434E07F60E1D69B5402843CE08BD
:103E100002F1200545F8260010684E000325B54044
:103E2000A8431D7905F003054E00B54028431060F6
:103E30005D6805F44035002D6BD000BF384D2D6E08
:103E400045F00105364E356635462D6E05F0010507
:103E5000009500BF00BF4FEAB6358E0855F8260022
:103E60008D072E0F0F25B540A843B2F1904F02D118
:103E700000251AE04DE02B4DAA4201D1012514E0A6
:103E8000294DAA4201D102250FE0284DAA4201D1B5
:103E900003250AE0264DAA4201D1042505E0254D5F
:103EA000AA4201D1052500E006258E07360FB54050
:103EB0002843214D8E0845F82600204D2868A04350
:103EC0005D6805F4801505B120431C4D28602D1D4B
:103ED0002868A0435D6805F4001505B12043174D1F
:103EE0002D1D2860154D2D1F2868A0435D6805F421
:103EF000003505B12043114D2D1F28602D1F286866
:103F0000A0435D6805F4803505B120430B4D083DA5
:103F10002860491C1D68CD40002D7FF430AF78BD6E
:103F2000001002400004004800080048000C00484F
:103F30000010004800140048080001400804014037
:103F40000AB1816100E081627047000001480068A9
:103F5000704700005C0000200348006803490968BE
:103F600008440149086070475C000020640000209C
:103F700010B50024032000F0ABF80F2000F008F883
:103F800008B1012401E000F02FF8204610BD000028
:103F900070B50446002511480068D8B10F48006884
:103FA0004FF47A71B1FBF0F00D490968B1FBF0F6FE
:103FB000304601F056F958B9102C07D2002221469C
:103FC000501E00F047F80748046004E0012502E0B5
:103FD000012500E00125284670BD00006400002096
:103FE000680000206000002008B500BF0E48006E89
:103FF00040F001000C4908660846006E00F0010020
:10400000009000BF00BF00BF0846806D40F08050A8
:1040100088650846806D00F08050009000BF00BFAA
:1040200000F0F6F808BD0000001002400146084606
:1040300000280DDB00BF00BF00F01F0301229A40E3
:1040400043099B0003F1E023C3F8002100BF00BF38
:1040500000BF70472DE9F05F80460D46164605F01B
:1040600033F9074639462A46334601F00700C0F1C6
:10407000070ABAF1040F02D94FF0040A01E0C0F1B7
:10408000070AD14600F1040ABAF1070F02D24FF035
:10409000000A01E0A0F1030AD4464FF0010A0AFA2F
:1040A00009FAAAF1010A0AEA020A0AFA0CFA4FF01E
:1040B000010B0BFA0CFBABF1010B0BEA030B4AEA09
:1040C0000B042146404605F007F9BDE8F09F0000CB
:1040D00000BF00F00702064B19684FF6FF031940B6
:1040E000044B0B4343EA0221014B196000BF7047A8
:1040F0000CED00E00000FA0502468ABB414800686A
:1041000000F4C060B0F5806F2BD13E48803000686D
:1041100020F480703B4BC3F880001846006820F400
:10412000C06040F40070186037480068322358437C
:10413000364BB0FBF3F0411C00E0491E31484069AA
:1041400000F48060B0F5806F01D10029F5D12D48D1
:10415000406900F48060B0F5806F51D10320704752
:1041600008E028488030006820F48070254BC3F8B0
:10417000800045E0B2F5007F3AD12248006800F4A3
:10418000C060B0F5806F2AD11E488030006840F4CE
:1041900080701C4BC3F880001846006820F4C06093
:1041A00040F4007018601848006832235843174BD9
:1041B000B0FBF3F0411C00E0491E1248406900F4D6
:1041C0008060B0F5806F01D10029F5D10D484069BC
:1041D00000F48060B0F5806F12D10320BFE709487A
:1041E0008030006840F48070064BC3F8800007E020
:1041F0000448006820F4C06040F48060014B1860FF
:104200000020ACE7007000406800002040420F0032
:104210000348806840F4804001498860704700008E
:10422000007000402DE9F84304460027B846206896
:1042300000F40020B0F5002F73D1B946D348806D4B
:1042400000F0805078B900BFD048806D40F08050B9
:10425000CE4988650846806D00F08050009000BF10
:1042600000BF4FF00109CA48006840F48070C84997
:104270000860FFF76BFE064606E0FFF767FE801B4F
:10428000022801D9032705E0C148006800F48070C6
:104290000028F2D000BF002F46D1BC489030006803
:1042A00000F44075CDB1206CA84216D0B7489030CC
:1042B000006820F44075B548D0F8900040F4803094
:1042C000B249C1F890000846D0F8900020F4803040
:1042D000C1F890000846C0F8905005F00100A0B168
:1042E000FFF734FE064608E0FFF730FE801B41F280
:1042F0008831884201D9032706E0A448903000683D
:1043000000F002000028EFD000BF5FB99F48903056
:10431000006820F44070216C08439C49C1F890006B
:1043200003E00CE0B84600E0B846B9F1010F05D152
:104330009648806D20F080509449886500BF2078B1
:1043400000F0010048B191488830006820F0030077
:10435000616808438D49C1F88800207800F00200A8
:10436000022809D189488830006820F00C00A16833
:1043700008438649C1F88800207800F0040004282A
:1043800009D182488830006820F03000E168084395
:104390007E49C1F88800207800F00800082809D17B
:1043A0007A488830006820F0C000216908437749C6
:1043B000C1F88800207800F02000202809D1734837
:1043C0008830006820F44060616908436F49C1F893
:1043D0008800207800F04000402809D16B488830E0
:1043E000006820F44050A16908436849C1F888007A
:1043F000207800F08000802809D164488830006867
:1044000020F44040E16908436049C1F888002088F1
:1044100000F48070B0F5807F09D15C488830006876
:1044200020F44030216A08435849C1F888002088A8
:1044300000F40070B0F5007F09D15448883000685E
:1044400020F44020616A08435049C1F88800208860
:1044500000F48060B0F5806F13D14C48883000685C
:1044600020F44010A16A0843484988310860A06AD6
:10447000B0F5801F05D14548C06840F4801043491D
:10448000C860208800F40060B0F5006F13D13F4889
:104490008830006820F44000E16A08433B498831D5
:1044A0000860E06AB0F5800F05D13848C06840F474
:1044B00080103649C860208800F48050B0F5805FD5
:1044C00013D132488830006820F04070216B0843D7
:1044D0002E4988310860206BB0F1807F05D12B48D0
:1044E000C06840F480102949C860208800F400505A
:1044F000B0F5005F13D125488830006820F0406097
:10450000616B0843214988310860606BB0F1006F2E
:1045100005D11E48C06840F480101C49C86020883E
:1045200000F48040B0F5804F13D1184888300068FF
:1045300020F04060A16B0843144988310860A06BEB
:10454000B0F1006F05D11148C06840F480100F49E8
:10455000C860208800F40040B0F5004F13D10B482C
:104560008830006820F04050E16B084307498831EB
:104570000860E06BB0F1805F05D10448C06840F48A
:1045800080300249C8604046BDE8F8830010024010
:10459000007000402DE9F04104460D464FF0000840
:1045A00014B90120BDE8F0817D48006800F00F00DB
:1045B000A8420ED27A48006820F00F0028437849BC
:1045C00008600846006800F00F00A84201D00120F2
:1045D000E8E7207800F00100002864D06068032834
:1045E00023D17048006800F0007008B90120D9E7B5
:1045F00003F060FC06466C48864237D969488068FB
:1046000000F0F00030B1207800F0020002282DD137
:10461000A06858BB6348806820F0F00040F080003C
:10462000604988604FF0800820E06068022806D169
:104630005C48006800F4003040B90120B2E75948F6
:10464000006800F4806008B90120ABE700F0DEF8F4
:1046500006465548864209D95248806820F0F00045
:1046600040F080004F4988604FF080084D488068D6
:1046700020F00300616808434A498860FFF766FC40
:10468000074608E0FFF762FCC01B41F28831884210
:1046900001D9032086E74348806800F00C00616878
:1046A000B0EB810FEED1207800F00200022820D17B
:1046B000207800F00400042805D13A48806840F4CE
:1046C000E06038498860207800F00800082807D1A9
:1046D0003448806820F4605040F4E06031498860DC
:1046E0003048806820F0F000A16808432D498860B8
:1046F00008E0B8F1800F05D12A48806820F0F0006A
:10470000284988602648006800F00F00A84219D99F
:104710002348006820F00F00284321490860FFF774
:1047200015FC074608E0FFF711FCC01B41F2883179
:10473000884201D9032035E71948006800F00F00CE
:10474000A842F0D1207800F00400042807D11548D1
:10475000806820F4E060E1680843124988602078AE
:1047600000F00800082808D10E48806820F4605046
:10477000216940EAC1000B49886000F047F8094907
:104780008968C1F30311094A515C01F01F01C84057
:104790000749086007480068FFF7FAFB02E70000D6
:1047A000002002400010024000B4C40460950008DC
:1047B0006800002060000020014800687047000089
:1047C0006800002000B5FFF7F7FF05498968C1F3CD
:1047D0000221044A515C01F01F01C84000BD0000E5
:1047E000001002407095000800B5FFF7E5FF05498D
:1047F0008968C1F3C221044A515C01F01F01C8401D
:1048000000BD0000001002407095000870B5224DF8
:10481000AD6805F00C05042D01D120483AE01E4D8D
:10482000AD6805F00C05082D01D11D4832E01A4D88
:10483000AD6805F00C050C2D2BD1174DED6805F07A
:104840000304154DED68C5F303156A1C022C0CD04A
:10485000032C09D1124DB5FBF2F50F4EF668C6F3E5
:10486000062605FB06F10AE000BF0C4DB5FBF2F58C
:10487000094EF668C6F3062605FB06F100BF00BF29
:10488000054DED68C5F341656D1C6B00B1FBF3F0A0
:1048900000E0002070BD0000001002400024F40081
:1048A00000366E012DE9F843044614B90120BDE835
:1048B000F883207800F00100002865D0FC4880686B
:1048C00000F00C07FA48C06800F003060C2F01D175
:1048D000032E01D0082F0AD1F548006800F40030FB
:1048E000002851D0606800284ED10120DFE700BFCA
:1048F0006068B0F5803F06D1ED48006840F4803034
:10490000EB4908601AE06068B0F5A02F0BD1E848C9
:10491000006840F48020E64908600846006840F4DA
:10492000803008600AE0E248006820F48030E04906
:1049300008600846006820F48020086000BF6068B6
:1049400088B1FFF703FB054606E0FFF7FFFA401BBF
:10495000642801D90320AAE7D548006800F4003094
:104960000028F2D010E0FFF7F1FA054606E0FFF765
:10497000EDFA401B642801D9032098E7CC48006871
:1049800000F400300028F2D1207800F00200022864
:1049900060D1C748806800F00C07C548C06800F0C7
:1049A00003060C2F01D1022E01D0042F18D1C048CC
:1049B000006800F4806018B1E06808B9012076E76B
:1049C000BB48406820F0FE40217C40EA0160B849C5
:1049D0004860B8480068FFF7DBFA18B3012066E7C3
:1049E000E06800B3B248006840F48070B0490860E5
:1049F000FFF7ACFA054606E0FFF7A8FA401B0228CD
:104A000001D9032053E7AA48006800F48060002819
:104A1000F2D0A748406820F0FE40217C40EA0160C7
:104A2000A349486016E0A248006820F48070A049BD
:104A30000860FFF78BFA054606E0FFF787FA401B90
:104A4000022801D9032032E79948006800F4806009
:104A50000028F2D1207800F00800082836D16069DB
:104A6000D0B193489430006840F001009049C1F8FB
:104A70009400FFF76BFA054606E0FFF767FA401B64
:104A8000022801D9032012E789489430006800F019
:104A900002000028F1D019E085489430006820F029
:104AA00001008349C1F89400FFF750FA054606E07B
:104AB000FFF74CFA401B022801D90320F7E67C4897
:104AC0009430006800F002000028F1D1207800F056
:104AD0000400042872D14FF000087548806D012150
:104AE00021EA107078B100BF7148806D40F08050AD
:104AF0006F4988650846806D00F08050009000BFC7
:104B000000BF4FF001086C48006800F48070B0B935
:104B10006948006840F4807067490860FFF716FA3A
:104B2000054606E0FFF712FA401B022801D90320D0
:104B3000BDE66148006800F480700028F2D000BF34
:104B4000A068012808D15A489030006840F0010060
:104B50005749C1F8900021E0A06805280FD15448BA
:104B60009030006840F004005149C1F890000846B8
:104B7000D0F8900040F00100C1F890000EE04C48E1
:104B80009030006820F001004949C1F890000846C3
:104B9000D0F8900020F00400C1F8900000BFA06899
:104BA000A8B1FFF7D3F9054609E0FFF7CFF9401B9D
:104BB00041F28831884202D9032078E625E03C485A
:104BC0009030006800F002000028EED013E0FFF7FC
:104BD000BDF9054608E0FFF7B9F9401B41F28831FD
:104BE000884201D9032062E631489030006800F025
:104BF00002000028EFD1B8F1010F05D12C48806DDB
:104C000020F080502A49886500BF207800F02000FD
:104C1000202836D1A069D0B125489830006840F0EE
:104C200001002349C1F89800FFF790F9054606E016
:104C3000FFF78CF9401B022801D9032037E61C48F6
:104C40009830006800F002000028F1D019E0184800
:104C50009830006820F001001549C1F89800FFF76E
:104C600075F9054606E0FFF771F9401B022801D9E6
:104C700003201CE60E489830006800F0020000286F
:104C8000F1D1E069002860D00948806800F00C008C
:104C90000C287AD0E069022858D10548006820F035
:104CA000807003490860FFF751F905460DE00000E8
:104CB000001002406000002000700040FFF746F93D
:104CC000401B022801D90320F1E54A48006800F0A2
:104CD00000700028F2D1D4E90810401E41EA00110A
:104CE000A06A41EA0021208E0122C2EB500041EA75
:104CF00040513420005DC2EB500041EA40612C205D
:104D0000005D41EAC0603B49C9683B4A1140084325
:104D10003849C8600846006840F08070086008465E
:104D2000C06840F08070C860FFF710F9054606E0E3
:104D3000FFF70CF9401B022801D90320B7E52D48E5
:104D4000006800F000700028F2D051E029480068A7
:104D500020F0807027490860FFF7F8F8054606E064
:104D6000FFF7F4F8401B022801D903209FE52148F2
:104D7000006800F000700028F2D11E48C0681F498A
:104D800008401C49C86033E0FFE7E069012800D112
:104D90008DE51848C66806F00301206A814225D1D6
:104DA00006F0F001606A401EB1EB001F1ED106F450
:104DB000FE41A06AB1EB002F18D106F078412C20FB
:104DC000005DB1EBC06F11D106F4C001208E01224D
:104DD000C2EB5000B1EB405F08D106F0C061342057
:104DE000005DC2EB5000B1EB406F01D001205EE5E9
:104DF00000205CE5001002400C809F01FCFFEEFEED
:104E000070B504460CB9012070BD606A38B960689D
:104E1000B0F5827F00D105E00021E16102E00021D0
:104E2000216161610021A16294F85D0028B9002030
:104E300084F85C00204600F061F8022084F85D00F0
:104E40002068006820F0400021680860E068B0F544
:104E5000E06F01D9002501E04FF48055E068B0F51E
:104E6000706F05D0E068B0F5E06F01D00021A1625D
:104E7000A08800F48270218901F404410843217C58
:104E800001F002010843217D01F001010843218B5B
:104E900001F400710843217F01F03801084320210B
:104EA000095D01F080010843218D01F400510843A0
:104EB000216808600421A06901EA104094F82410D8
:104EC00001F01001084394F8341001F00801084380
:104ED000A18901F47061084305F4805108432168F9
:104EE00048602068C06920F400602168C861002023
:104EF0002066012084F85D00002085E710B586B0AB
:104F00000446142101A8FBF7BBF91F492068884219
:104F100037D100BF1D48006E40F480501B49086621
:104F20000846006E00F48050009000BF00BF00BF34
:104F30000846C06C40F00100C8640846C06C00F030
:104F40000100009000BF00BFA0200190022002904D
:104F50000020039004900520059001A94FF0904097
:104F6000FEF708FF402001900220029000200390ED
:104F7000032004900520059001A94FF09040FEF712
:104F8000F9FE06B010BD00000030014000100240E4
:104F90002DE9FF5F0446894692461D460E9E01207C
:104FA00001900020009000BF94F85C00012803D11C
:104FB000022004B0BDE8F09F012084F85C0000BF2F
:104FC000FEF7C4FF074694F85D0002906068039006
:104FD000A846AB46029801280BD00398B0F5827F13
:104FE00004D1A06810B90298042802D002200090D1
:104FF00030E1B9F1000F03D0BAF1000F00D015B9BC
:105000000120009026E194F85D00042802D00520DC
:1050100084F85D0000202066C4F840A0A4F8465043
:10502000A4F84450C4F83890E587A587E06420656B
:10503000E068B0F5E06F02D8BBF1010F06D9206837
:10504000406820F480502168486005E0206840688E
:1050500040F48050216848602068006800F04000FB
:10506000402805D02068006840F0400021680860B2
:10507000E068B0F5E06F51D9606810B1B8F1010F88
:1050800009D1A06B00882168C860A06B801CA06358
:10509000E08F401EE08739E02068806800F0020061
:1050A000022810D1E08F70B1019801280BD1A06BBC
:1050B00000882168C860A06B801CA063E08F401E40
:1050C000E087002001902068806800F0010080B136
:1050D000B4F8460068B12068C068216C0880206C74
:1050E000801C2064B4F84600401EA4F8460001204D
:1050F0000190FEF72BFFC01BB04207D3701C28B1F4
:1051000003200090012084F85D00A3E0E08F0028D8
:10511000C2D1B4F846000028BED188E0606810B162
:10512000B8F1010F17D1E08F01280AD9A06B0088D0
:105130002168C860A06B801CA063E08F801EE087A0
:1051400009E0A06B007821680873A06B401CA06385
:10515000E08F401EE08763E02068806800F0020076
:1051600002281ED1E08FE0B10198012819D1E08F0B
:1051700001280AD9A06B00882168C860A06B801C38
:10518000A063E08F801EE08709E0A06B00782168B3
:105190000873A06B401CA063E08F401EE0870020D6
:1051A00001902068806800F0010058B3B4F8460010
:1051B00040B3B4F84600012816D92068C068216CB5
:1051C0000880206C801C2064B4F84600801EA4F87F
:1051D0004600B4F84600012812D82068406840F420
:1051E0008050216848600BE02068007B216C0870CB
:1051F000206C401C2064B4F84600401EA4F8460011
:1052000001200190FEF7A2FEC01BB04201D3701C2A
:1052100000B92EB903200090012084F85D0019E048
:10522000E08F002898D1B4F84600002894D13A467F
:105230003146204602F072FE18B101200090202075
:105240002066206E10B10120009002E0012084F859
:105250005D0000BF00BF002084F85C0000BF009824
:10526000A7E670B504462546681EB0F1807F01D3DD
:1052700001200FE0681E4FF0E02148610F214FF040
:10528000FF3004F029F800204FF0E021886107206A
:105290000861002070BD70477047704710B5034625
:1052A000002200BF93F83C00012801D1022010BD6C
:1052B000012083F83C0000BF22F0FF00CC6840EAE8
:1052C000040222F440708C6840EA040222F48060F8
:1052D0004C6840EA040222F400600C6840EA0402D0
:1052E00022F480500C6940EA040222F400504C6918
:1052F00040EA040222F480400C6B40EA040222F4EB
:1053000070200C8B40EA044222F08050CC6940EAC5
:105310000402124C1868A04203D0114C1868A04235
:1053200013D122F470000C8D40EA045222F08070F8
:105330000C6A40EA040222F000704C6A40EA04025F
:1053400022F00050CC6A40EA04021868426400BFB0
:10535000002083F83C0000BF00BFA8E7002C0140FC
:1053600000340140704770477047000030B5024676
:105370000B4600BF92F83C00012801D1022030BD4D
:10538000012082F83C0000BF022082F83D00106836
:105390004168106884681D4D1068A84203D01C4DF8
:1053A0001068A84203D121F47001586801431948DC
:1053B00001401868014310684160144D1068A8420C
:1053C00013D01068B0F1804F0FD0134D1068A84271
:1053D0000BD0124D1068A84207D00D4D1068A8429E
:1053E00003D00F4D1068A84205D124F080049868BE
:1053F000044310688460012082F83D0000BF002053
:1054000082F83C0000BF00BFB9E70000002C01405B
:10541000003401408FFFFFFD000400400008004001
:105420000040014070B504460D4615B994F844009B
:105430000BE0042D02D14520005D06E0082D02D1CD
:105440004620005D01E04720005D012801D00120D9
:1054500070BD1DB9022084F844000EE0042D03D174
:1054600002214520015508E0082D03D102214620E4
:10547000015502E0022147200155042229462068F7
:1054800002F0EDFF2068406C40F400402168486461
:1054900018492068884213D02068B0F1804F0FD09F
:1054A0001549206888420BD014492068884207D0EB
:1054B00013492068884203D012492068884210D1DD
:1054C00020688068104900EA0106062E0FD0B6F564
:1054D000803F0CD02068006840F00100216808601F
:1054E00005E02068006840F00100216808600020A5
:1054F000AEE70000002C014000040040000800401E
:10550000003401400040014007000100704710B521
:1055100004460CB9012010BD94F83D0028B90020C4
:1055200084F83C00204600F029F8022084F83D0071
:10553000211D206802F01CFF012084F8480000BFF4
:1055400084F83E0001213F200155402001554120B3
:105550000155422001554320015500BF00BF0120E5
:1055600084F8440045200155462001554720015547
:1055700000BF012084F83D000020CCE738B5044688
:105580001649206888420DD100BF1548006E40F4CE
:105590000060134908660846006E00F40060009041
:1055A00000BF19E00F492068884215D100BF0C48A0
:1055B000806D40F020000A4988650846806D00F043
:1055C0002000009000BF00BF002211463720FEF7E8
:1055D00041FD3720FEF72AFD38BD0000002C0140B8
:1055E0000010024000140040014691F83D000128DF
:1055F00001D001207047022081F83D00184B086857
:10560000984213D00868B0F1804F0FD0154B08684E
:1056100098420BD0144B0868984207D0134B086887
:10562000984203D0124B0868984210D108688068ED
:10563000104B00EA0302062A0FD0B2F5803F0CD0CF
:105640000868006840F001000B68186005E0086811
:10565000006840F001000B6818600020CAE70000F5
:10566000002C0140000400400008004000340140CC
:105670000040014007000100014691F83D0001286B
:1056800001D001207047022081F83D000868C06801
:1056900040F001000B68D860184B0868984213D09E
:1056A0000868B0F1804F0FD0154B086898420BD0B6
:1056B000144B0868984207D0134B0868984203D0EF
:1056C000124B0868984210D108688068104B00EAB5
:1056D0000302062A0FD0B2F5803F0CD0086800689C
:1056E00040F001000B68186005E00868006840F0B1
:1056F00001000B6818600020C4E70000002C014086
:105700000004004000080040003401400040014017
:10571000070001002DE9F04104460D46002700BFB7
:1057200094F83C00012802D10220BDE8F08101205C
:1057300084F83C0000BF022084F83D0020688668A1
:105740003F48064026F47F46206886602868702817
:1057500024D00CDC00F00F01002964D100110728CF
:1057600061D2DFE800F05354555649353F00354AC1
:10577000811A90424FD009DCB0F5805F0DD0B0F5B2
:10578000005F18D0B0F1101F4DD143E0102943D075
:10579000202942D0502946D140E046E0D5E9021305
:1057A0006A68206802F06CFE2068866846F077061A
:1057B0002068866039E0D5E902136A68206802F043
:1057C0005FFE2068806840F48040216888602CE09B
:1057D000EA686968206803F03FF85021206802F009
:1057E0005BFE22E0EA686968206803F048F86021FF
:1057F000206802F051FE18E0EA686968206803F04A
:105800002BF84021206802F047FE0EE000BF00BFE9
:1058100000BF00BF00BF00BF00BF00BF29682068F5
:1058200002F03AFE01E0012700BF00BF012084F82A
:105830003D0000BF002084F83C0000BF384674E7FC
:1058400088FFCEFF20001000704770B50446206826
:10585000C6682068056905F00200022819D106F023
:105860000200022815D1401F21680861012020771D
:105870002068806900F0030018B12046FFF7E4FFBC
:1058800005E0204600F04EF9204600F03CFA0020EA
:10589000207705F00400042819D106F0040004283C
:1058A00015D1C043216808610220207720688069F3
:1058B00000F4407018B12046FFF7C6FF05E020460F
:1058C00000F030F9204600F01EFA0020207705F0A5
:1058D0000800082819D106F00800082815D1C0438F
:1058E00021680861042020772068C06900F0030067
:1058F00018B12046FFF7A8FF05E0204600F012F996
:10590000204600F000FA0020207705F01000102853
:1059100019D106F01000102815D1C0432168086184
:10592000082020772068C06900F4407018B1204634
:10593000FFF78AFF05E0204600F0F4F8204600F06B
:10594000E2F90020207705F0010048B106F00100DF
:1059500030B16FF0010021680861204600F07AFA4A
:1059600005F08000802804D005F40050B0F5005FF9
:105970000AD106F08000802806D16FF40250216819
:1059800008612046FFF788FC05F48070B0F5807F41
:105990000AD106F08000802806D16FF4807021685B
:1059A00008612046FFF777FC05F04000402809D148
:1059B00006F04000402805D1C04321680861204618
:1059C00000F014FB05F02000202809D106F020008B
:1059D000202805D1C043216808612046FFF75DFCFF
:1059E00005F48010B0F5801F0BD106F48010B0F5DF
:1059F000801F06D16FF48010216808612046FFF7F0
:105A0000B2FC05F40010B0F5001F0BD106F4001035
:105A1000B0F5001F06D16FF4001021680861204620
:105A2000FFF7A0FC05F48000B0F5800F0BD106F461
:105A30008000B0F5800F06D16FF480002168086106
:105A40002046FFF791FC05F40000B0F5000F0BD1E4
:105A500006F40000B0F5000F06D16FF400002168D5
:105A600008612046FFF752FD70BD000010B586B0FA
:105A70000446142101A8FAF703FC2749206888424C
:105A800048D100BF2548C06C40F002002349C864DB
:105A90000846C06C00F00200009000BF00BF00BFCD
:105AA0000846C06C40F00100C8640846C06C00F0B5
:105AB0000100009000BF00BF4FF4C04001900220E1
:105AC000029000200390022004900620059001A976
:105AD0001348FEF74FF94FF4004001900220029066
